{
  "address": "0x2dade4195A43037e391D5004D96d0914Bfad0C88",
  "abi": [
    {
      "anonymous": false,
      "inputs": [
        {
          "indexed": false,
          "internalType": "bytes",
          "name": "pubkey",
          "type": "bytes"
        },
        {
          "indexed": false,
          "internalType": "bytes",
          "name": "idCommitment",
          "type": "bytes"
        },
        {
          "indexed": false,
          "internalType": "bytes",
          "name": "signature",
          "type": "bytes"
        }
      ],
      "name": "Registered",
      "type": "event"
    },
    {
      "inputs": [
        {
          "internalType": "bytes",
          "name": "pubkey",
          "type": "bytes"
        },
        {
          "internalType": "bytes",
          "name": "idCommitment",
          "type": "bytes"
        },
        {
          "internalType": "bytes",
          "name": "signature",
          "type": "bytes"
        }
      ],
      "name": "register",
      "outputs": [],
      "stateMutability": "nonpayable",
      "type": "function"
    }
  ],
  "transactionHash": "0xa0fc7cd9a03db958ef45be8225d2c69b55d2541fa82b9ef683bd2f706f7f6ffa",
  "args": [],
  "numDeployments": 1,
  "solcInputHash": "9c45658968b5eef2c53efcb26dd87ba2",
  "bytecode": "0x608060405234801561001057600080fd5b506103a0806100206000396000f3fe608060405234801561001057600080fd5b506004361061002b5760003560e01c8063d438035314610030575b600080fd5b61004361003e36600461023e565b610045565b005b603085146100c05760405162461bcd60e51b815260206004820152603460248201527f526567697374726174696f6e204572726f723a207075626b6579206c656e677460448201527f682073686f756c6420626520343820627974657300000000000000000000000060648201526084015b60405180910390fd5b602083146101365760405162461bcd60e51b815260206004820152603a60248201527f526567697374726174696f6e204572726f723a206964436f6d6d69746d656e7460448201527f206c656e6774682073686f756c6420626520333220627974657300000000000060648201526084016100b7565b606081146101ac5760405162461bcd60e51b815260206004820152603760248201527f526567697374726174696f6e204572726f723a207369676e6174757265206c6560448201527f6e6774682073686f756c6420626520393620627974657300000000000000000060648201526084016100b7565b7f26b563134db20ec50fefb93d7f1660d9d2ce36e56f04d6e9650fe5ae0668c9358686868686866040516101e596959493929190610321565b60405180910390a1505050505050565b60008083601f84011261020757600080fd5b50813567ffffffffffffffff81111561021f57600080fd5b60208301915083602082850101111561023757600080fd5b9250929050565b6000806000806000806060878903121561025757600080fd5b863567ffffffffffffffff8082111561026f57600080fd5b61027b8a838b016101f5565b9098509650602089013591508082111561029457600080fd5b6102a08a838b016101f5565b909650945060408901359150808211156102b957600080fd5b506102c689828a016101f5565b979a9699509497509295939492505050565b8183528181602085013750600060208284010152600060207fffffffffffffffffffffffffffffffffffffffffffffffffffffffffffffffe0601f840116840101905092915050565b60608152600061033560608301888a6102d8565b82810360208401526103488187896102d8565b9050828103604084015261035d8185876102d8565b999850505050505050505056fea2646970667358221220f99ef3037328f5d2cba4546c3ff9e224797c866e7d6357705c2caf2ac416cbf764736f6c634300080b0033",
  "devdoc": {
    "kind": "dev",
    "methods": {
      "register(bytes,bytes,bytes)": {
        "params": {
          "idCommitment": "An identity commitment for the ETH2 validator for group membership",
          "pubkey": "A BLS12-381 public key of the ETH2 validator",
          "signature": "A BLS12-381 signature of the `idCommitment` signed by the ETH2 validator's private key from which the `pubkey` is derived from"
        }
      }
    },
    "title": "ETH2 Private messaging registry contract",
    "version": 1
  },
  "userdoc": {
    "kind": "user",
    "methods": {
      "register(bytes,bytes,bytes)": {
        "notice": "Record the registration related parameters in the blockchain's logs and emit Registration event"
      }
    },
    "notice": "The registry contract used by ETH2 validators to register in the private chat",
    "version": 1
  },
  "storageLayout": {
    "storage": [],
    "types": null
  }
}